:020000040800F2
:10000000D0060020450100084D0100084F010008FE
:1000100051010008530100085501000800000000CC
:100020000000000000000000000000005701000870
:1000300059010008000000005B0100085D01000894
:100040005F0100085F0100085F0100085F01000810
:100050005F0100085F0100085F0100085F01000800
:100060005F0100085F0100085F0100085F010008F0
:100070005F0100085F0100085F0100085F010008E0
:100080005F0100085F0100085F0100085F010008D0
:100090005F0100085F0100085F0100085F010008C0
:1000A0005F0100085F0100085F0100085F010008B0
:1000B000814900083D4A00085F0100085F0100080F
:1000C0005F0100085F0100085F0100085F01000890
:1000D0005F010008FD4B0008614C0008634C0008FC
:1000E0005F0100085F0100085F0100085F01000870
:1000F0005F0100085F0100085F0100085F01000860
:100100005F0100085F0100085F0100085F0100084F
:100110005F0100085F0100085F0100085F0100083F
:100120005F0100085F0100085F0100085F0100082F
:10013000DFF80CD000F008FD00480047ED5800083B
:10014000D00600200648804706480047FEE7FEE745
:10015000FEE7FEE7FEE7FEE7FEE7FEE7FEE7FEE777
:100160002D4900083101000840EA01039B0703D034
:1001700009E008C9121F08C0042AFAD203E011F8E6
:10018000013B00F8013B521EF9D270470FB400B595
:100190008DB010A909900B9000914FF0FF300A909C
:1001A00000200C9005480690054807906A4609A86B
:1001B0000F9900F0C1FA0DB05DF814FB5507000867
:1001C000730700082DE9FF5F1D464FF0FF3BD5E99F
:1001D000014691465F464FF00008A9697F1C0198CF
:1001E0008847296A824688470028F6D1BAF1FF3F3E
:1001F0000CD024F4C064002E19DD600614D5BAF1C9
:100200002B0F09D0BAF12D0F0ED103E0584604B0E0
:10021000BDE8F09F44F48064A9697F1C0198884779
:10022000761E8246002E02DDBAF1300F03D0B9F1FE
:10023000000F26D032E0A969761E44F400747F1CBA
:10024000019888478246002E05DDBAF1780F06D066
:10025000BAF1580F03D0B9F1000F10D01EE0B9F178
:10026000000F02D0B9F1100F18D1A969761E24F43D
:1002700000747F1C019888478246102002E0082005
:1002800000E00A20814609E008FB0908A969761EFA
:1002900044F400747F1C019888478246002E05DDD7
:1002A0004946504600F033FA0028EDDAE969019832
:1002B0008847A00502D46FF00100A8E7E00725D128
:1002C000600613D5600502D5C8F1000000E0404685
:1002D00029680A1D2A600968220501D5087015E001
:1002E000220701D5088011E008600FE02868011D91
:1002F00029600068210502D580F8008006E021070A
:1003000002D5A0F8008001E0C0F8008038467EE702
:10031000F0B480EA0102D40F4200B2EB410F02D2E6
:100320000246084611464A0042D0C30DDDB2C1F371
:10033000C752AD1A202D35DAC1F3160141F400027F
:1003400004B15242C5F1200602FA06F12A411044D6
:10035000B3EBD05F23D0C4B1012DA0EBC35009DCB7
:10036000F0BC4FF0004202EAC352DBB200F50000DD
:1003700000F019BA400000F1807000EBC350A0F10A
:10038000807040EAD170490009E0490841EAC07133
:10039000A0EBC35000F50000400800EBC350F0BCD8
:1003A00000F0F8B96142012202EB4101001BF6E7BF
:1003B000F0BC704781F00041AAE780F00040A7E759
:1003C00080EA010210B502F00043400022D04A004A
:1003D0001FD0010E01EB1261C0F35600C2F35602AA
:1003E00040F4000042F40002A0FB022000047F3928
:1003F000140400D0401C50EA124001D44000491EB1
:10040000C2B20C0604EBD010401C4008802A02D077
:1004100003E0002010BD20F00100002900DA0020D8
:10042000184310BD30B480EA010202F0004530F0FC
:10043000004221F0004013D090B1C30DD40DC2F39F
:100440001601C0F31600E41A41F4000140F4000262
:100450007D34914201D3641C00E04900002C02DA93
:1004600030BC002070474FF400000023914201D3BC
:10047000891A034340084FEA4101F7D151B1914233
:1004800002D14FF0004105E002D24FF0010101E03E
:100490006FF0010103EBC450284430BC00F07AB97E
:1004A0002DE9FE4F81EA030404F0004421F00041ED
:1004B00000944FF0000B23F0004350EA01045ED09B
:1004C00052EA03045BD0C3F30A54C1F30A552C4427
:1004D000A4F2F3340194A0FB0254C1F3130141F4DC
:1004E0008011C3F3130343F4801301FB024400FBA8
:1004F000034E840A970A44EA815447EA8357A4FBCF
:10050000076802958D0A05FB07854FEA932C04FBCB
:100510000C542705029D4FEA065847EA1637B5EBFB
:1005200008056EEB070C870E920E47EA811742EA28
:100530008312A7FB0201B6EB0B0164EB00042B0D49
:1005400043EA0C335E1844EB1C50DA465146E7FB95
:100550000201C5F313044FEA0B3343EA14534FEA85
:100560000432019C43EA0603A4F10C040294009CAB
:10057000CDE900B400F054F903B0BDE8F08F0020DD
:100580000146F9E7C10F80EAE0700844CA079623E4
:10059000002100F008B996230022114600F003B9AB
:1005A00000F0004220F00040C10DC0F3160040F4FE
:1005B00000007F2901DA00207047962903DCC1F191
:1005C0009601C84001E096398840002AF4D04042A4
:1005D000704720F00040C10DC0F3160040F4000049
:1005E0007F2901DA00207047962903DCC1F19601CA
:1005F000C840704796398840704700F0004230F09C
:1006000000400AD0C10D01F56071C0F3160042EA46
:100610000151C2084007114370470020014670474E
:1006200001F0004330B421F0004150EA010206D04D
:100630000A0DA2F56072C1F31301002A02DC30BC7E
:1006400000207047440F44EAC104C100E01830BCE8
:1006500000EBC25000F09EB8002801DBC0F1004062
:10066000002901DBC1F1004181427047002801DB14
:10067000C0F10040002901DBC1F100418842704710
:1006800030B50B46014600202022012409E021FA62
:1006900002F59D4205D303FA02F5491B04FA02F55F
:1006A0002844151EA2F10102F1DC30BD2DE9F05FF6
:1006B0000546002092469B468846064681464024D1
:1006C0001BE0284641464746224600F05EFA534664
:1006D0005A46C01A914110D311461846224600F0DE
:1006E00045FA2D1A67EB01084F46224601200021EA
:1006F00000F03CFA17EB00094E41201EA4F1010462
:10070000DFDC484631462A464346BDE8F09F3A289A
:1007100000D2303820F02002412A01D3A2F1370064
:10072000884201D34FF0FF30704700000268114447
:100730001378016018467047D1600449516104493B
:10074000116200211161114600F046BA2D07000820
:10075000CF0B0008426842B1016811F8013B23B198
:10076000521EC0E90012184670470121C160881E60
:10077000704742685AB1C368016843B983688B42C5
:1007800005D0491E521CC0E90012002070474FF0EE
:10079000FF3070470029A8BF7047401C490008BFC0
:1007A00020F00100704710B4B0FA80FC00FA0CF0A1
:1007B00050EA010404BF10BC704749B1CCF12004D9
:1007C00021FA04F411FA0CF118BF01212143084366
:1007D000A3EB0C01CB1D4FEA00614FEA102042BF92
:1007E000002010BC704700EBC35010440029A4BF88
:1007F00010BC7047401C490008BF20F0010010BC2D
:10080000704710B5141E73F1000408DA401C41F162
:10081000000192185B411A4301D120F0010010BD84
:100820002DE9F04D92469B4611B1B1FA81F202E0FA
:10083000B0FA80F22032904600F098F904460F4654
:1008400040EA0A0041EA0B0153465A46084313D0D6
:10085000114653EA010019D0C8F14002504600F099
:1008600094F905460E4650465946424600F07EF938
:10087000084305D0012004E020463946BDE8F08D4C
:100880000020054346EAE0762C4337430A98630587
:10089000E40AA0EB08000022FD0A44EA47540A30AB
:1008A00002D500200146E9E7010510196941DDE99B
:1008B000084500196941BDE8F04DA2E72DE9FE4F5A
:1008C000804681EA0300C00F0C46009021F00041F1
:1008D00023F00045B8EB0200A94105D2404621466D
:1008E00090461C460B46024623F00040104347D07A
:1008F000270DC7F30A00C3F30A510290401A019072
:1009000040286BDAC3F3130040F4801B0098924632
:1009100020B10023D2EB030A63EB0B0B019859467D
:10092000C0F14002504600F021F906460D465046FF
:100930005946019A00F039F910EB08006141002492
:1009400087EA115284EAE7731A4340D0009A62B3EF
:10095000019A012A4FEA075215DC001B61EB0201E4
:100960004FF0004202EA0752CDE90042001C41F577
:10097000801132462B46FFF753FF03B0BDE8F08FDE
:1009800040462146F9E7001B61EB0201001C41F5DE
:10099000801300185B412018A2F5001747EB0301F4
:1009A00040EAD570B6196D4111E06D084FEA360680
:1009B00045EAC0754FEA0752001B61EB0201001CBB
:1009C00041F5801149084FEA300000195141324683
:1009D0002B4603B0BDE8F04FFFF713BF009801228C
:1009E00040000023D0EB020263EBE0730098214645
:1009F0004FEAE074B8EB000061EB0401E9E783F033
:100A000000435BE781F0004158E72DE9F04D81EAB2
:100A1000030404F0004B21F0004514464FF0000A97
:100A200023F0004150EA050220D054EA01021DD013
:100A3000C5F30A570246C5F31303C1F31300C1F30C
:100A40000A5640F4801543F48013A7EB0608101BE8
:100A5000D64608F2FD3873EB050002D308F1010811
:100A600001E092185B41B8F1000F03DA0020014663
:100A7000BDE8F08D00204FF48011064684460EE05C
:100A8000171B73EB050705D3121B63EB0503064326
:100A90004CEA010C49084FEA300092185B4150EAD9
:100AA0000107EDD152EA030012D082EA040083EA82
:100AB0000501084305D0101BAB4106D201220023DB
:100AC00006E000224FF0004302E06FF001025310F5
:100AD0001AEB06004CEB085110EB0A0041EB0B013E
:100AE000BDE8F04DFFF78DBEC1F30A52C1F313010B
:100AF00040F2FF3341F480119A4202DA00200146AD
:100B0000704740F233439A42A2F2334202DC52422F
:100B100000F03BB800F02AB830B5041E71F10004B3
:100B200004DB4FF00044404264EB0101141E73F1FA
:100B3000000405DB1C464FF00043524263EB040304
:100B4000994208BF904230BD064C074D06E0E06870
:100B500040F0010394E8070098471034AC42F6D304
:100B6000FFF7EAFAD00A0108F00A0108202A04DB9C
:100B7000203A00FA02F1002070479140C2F12003B0
:100B800020FA03F3194390407047202A04DB203AEF
:100B900021FA02F00021704721FA02F3D040C2F19D
:100BA00020029140084319467047202A06DBCB17E4
:100BB000203A41FA02F043EAE07306E041FA02F318
:100BC000D040C2F120029140084319467047C0B29C
:100BD0004FF4F05100F096B92DE9F34F8BB04FF080
:100BE000000801F10C000C464FF0010B46460DF1D8
:100BF000080A01906269012101989047051E2DD0D5
:100C0000252D2CD0216A8847C0B162690121019845
:100C10009047216A88470028F7D1411E62690198F0
:100C2000904700E0761CA1690B988847216A8847A5
:100C30000028F7D1E1690B988847DBE7A1690B9899
:100C400088470746A84201D1761CD3E7E1690B9893
:100C500088477F1C02D1B8F1000F6FD046E1002712
:100C600062693D463946019890472A2804D1626955
:100C70000121019890470125DFF8849262690121E2
:100C800001989047A0F130010A290AD24F45E5DCCE
:100C900007EB870100EB4107303FDFD445F010053B
:100CA000ECE7E90601D46FF000476C280AD04C2825
:100CB00014D0682815D06A280DD074281CD07A2842
:100CC0001AD01DE062690121019890476C2802D07A
:100CD00045F0040514E045F002050DE045F020055F
:100CE0000AE06269012101989047682802D045F026
:100CF000080505E045F40065626901210198904707
:100D0000C4E9015765283DD019DC58287AD00CDC9D
:100D1000452837D004DC252826D0412831D131E0C0
:100D200046282FD047282CD12CE05B2877D061288B
:100D300028D063287CD0642823D15AE0D0E06F28E3
:100D400048D008DC66281DD067281BD0692821D030
:100D50006E2816D127E0702845D0732868D07528F2
:100D600047D078280DD14DE0A1690B9888470546FA
:100D700025283FF469AFE1690B9888476D1C3FF463
:100D80006AAFB3E023466A466FF001000B99AFF3F8
:100D900000809EE045F040006060A80723464FF0C9
:100DA000000236D43EE0E8077FF447AF2068011D1B
:100DB00021600068290501D506701BE7290701D5C8
:100DC000068017E7A90703D5F117C0E9006111E70D
:100DD00006600FE745F040006060A80723464FF02B
:100DE000080216D41EE040F60E0125EA01006060FC
:100DF00016E045F040006060A80723464FF00A0265
:100E000007D40FE045F040006060A80708D52346EE
:100E100010226FF001000B99AFF3008059E007E05A
:100E2000234610226FF001000B99FFF7CBF950E039
:100E30004FF000094F464B46632802D05B2806D08E
:100E400040E0E80601D40120A06001273AE0626991
:100E50000121019890475E2805D14FF00109626990
:100E6000494601989047216939B900210A465346FD
:100E700043F82120491C0829FADBB0B3216969B97C
:100E8000C11700EBD16253110AEB830122F01F025C
:100E9000821A01200B68904003430B6062690121B4
:100EA000019890475D28E8D1B9F1000F09D00020E2
:100EB000514651F82020D24341F82020401C0828F8
:100EC000F7DB02AB224600976FF001000B99AFF3FE
:100ED000008000280CDA401C08D1BBF1000F05D0BF
:100EE0004FF0FF300DB0BDE8F08FFFE74046F9E767
:100EF000E90701D108F1010806444FF0000B79E63B
:100F0000CCCCCC0C7F2801D9002208E0064A02EBA9
:100F10005002C007127800D1120902F00F0201201E
:100F20009040084070470000900A01082DE9FF41F9
:100F300004460D4616461F460121084603F0F8FBFD
:100F4000ADF80840ADF804500020ADF80600ADF84B
:100F50000A0001A94FF0804003F0FEFD012188073F
:100F600003F082FD01221146900703F09DFD01214F
:100F7000880703F07CFD1C208DF80000F0B28DF88E
:100F80000100F8B28DF8020001208DF803006846D8
:100F900003F034F8BDE8FF812DE9FF4104460D461A
:100FA00016461F460121022003F0C2FBADF808409F
:100FB000ADF804500020ADF80600ADF80A0001A914
:100FC000104803F0C9FD01210E4803F04DFD012238
:100FD00011460C4803F068FD01210A4803F047FD63
:100FE0001D208DF80000F0B28DF80100F8B28DF8E8
:100FF000020001208DF80300684602F0FFFFBDE803
:10100000FF8100000004004030B589B005460C4661
:101010000121212003F09CFB0121080302F09CFE2A
:101020004FF40040ADF8200018208DF82300032075
:101030008DF8220008A9144802F003FE01210420C3
:1010400003F076FBADF81850ADF814400020ADF871
:101050001600ADF81A0005A90C4803F07DFD7020BC
:10106000ADF804000120ADF806000020ADF80A003C
:10107000ADF80C0001A9054803F020FD0821034844
:1010800003F05AFD09B030BD0014014000080040D3
:1010900008B510208DF80300C001ADF80000032052
:1010A0008DF802000121082003F052FB6946024836
:1010B00002F0C7FD08BD0000000C014010B5044659
:1010C000204600F009F8CC21204600F035F94421F3
:1010D000204600F031F910BD70B5054600242846C1
:1010E00000F0D8F8012000F005F9244801882448D0
:1010F000006802F088FE022004F0DCFB1F48018833
:101100001F48006802F07DFE40F2EE2004F0D2FBA2
:101110001A4801881A48006802F075FE0F2004F092
:10112000C9FB002000F0E6F804E0012004F0C2FB57
:10113000601CC4B2114801881148006802F054FED6
:1011400008B1C82CF1DBC82C01DB002070BD0024E5
:1011500004E0012004F0AEFB601CC4B20748018823
:101160000748006802F040FE08B9F02CF1DBF02CD3
:1011700001DB0020EAE70120E8E70000360000205C
:101180003800002070B506460024304600F082F892
:10119000002526E06410012000F0ACF81348018817
:1011A0001348006802F02DFE022004F083FB0F4874
:1011B00001880F48006802F026FE002000F09AF82F
:1011C0000A2004F077FB094801880948006802F00A
:1011D0000BFE08B144F080043C2004F06BFB681C5B
:1011E000C5B2082DD6DB204670BD000036000020B9
:1011F000380000202DE9FC5F83465846FFF76CFF5E
:10120000012004F02FFB5846FFF758FF5846FFF720
:1012100063FFCC21584600F08FF8BE21584600F0FD
:101220008BF85846FFF7AEFF01905846FFF7AAFF2C
:101230008246D146019840EA0929BAF1070F16DD26
:101240006FEA09001FFA80F94846FFF7A4F90090F9
:10125000FFF7D3F9074600220D4BFFF721F90546AA
:10126000FFF7DEF9044684F00040BDE8FC9F4846E5
:10127000FFF791F90090FFF7C0F905460022044BF3
:10128000FFF70EF90746FFF7CBF904462046ECE7D7
:101290000000B03F20B101280CD002281ED113E07D
:1012A0004021104A11801049104A11600121104A52
:1012B000118014E040210B4A11800B490B4A116048
:1012C00002210B4A11800AE04021064A118006499A
:1012D000064A11600421064A118000E000BF00BFE9
:1012E0007047000034000020001801403800002042
:1012F0003600002038B504461CB948208DF803009C
:1013000002E010208DF8030008480088ADF80000C6
:1013100003208DF8020001210548008803F018FA27
:1013200069460448006802F08CFC38BD3600002095
:10133000340000203800002070B506460C463046C8
:10134000FFF7A8FF0120FFF7D5FF002527E015488C
:1013500001881548006802F054FD022004F0AAFA42
:1013600004F0010030B10F4801880F48006802F016
:101370004AFD05E00B4801880B48006802F041FD7A
:101380003C2004F097FA074801880748006802F0FB
:101390003AFD6410022004F08DFA681CC5B2082DD5
:1013A000D5DB70BD36000020380000202DE9F0416B
:1013B00086B000BF02F030FD1028FBD00020874926
:1013C00008600120FFF716FF05462846FFF715F9CC
:1013D000064632460B4682A103A803F0C1FD03A8CE
:1013E00000908148006803460022D8210290952091
:1013F00002F00AFF01217D4803F039FBEDE07C4952
:10140000086901F0A7FE0020FFF7F4FE80460120E6
:10141000FFF7F0FE05464046FFF7EFF80646324676
:101420000B466FA103A803F09BFDFF201823502259
:1014300060210090952003F027F803A800906A48E7
:1014400000680346002260210290952002F0DCFE35
:101450002846FFF7D2F8064632460B4660A103A89D
:1014600003F07EFDFF201823502288210090952054
:1014700003F00AF803A800905B48006803460022C6
:1014800088210290952002F0BFFE03A800905648E4
:10149000006803460022D82102904FF4C87002F081
:1014A000B3FE4E4800683C21B0FBF1F201FB12068E
:1014B0004A480068B0FBF1F733463A464DA103A80D
:1014C00003F04EFDFF2018235022B02100909520FC
:1014D00002F0DAFF03A800904348006803460022A8
:1014E000B0210290952002F08FFE02F095FC044698
:1014F000002C72D0072C04D00C2C17D0102C6AD1E1
:1015000035E002F089FC80B902F086FC07280CD196
:1015100002F082FC48B902F07FFC072805D10220C6
:101520003349487306B0BDE8F08155E000202B49EF
:1015300008602846FFF761F8064632460B4628A1A8
:1015400003A803F00DFDFF2018235022D82100909E
:10155000952002F099FF03A80090234800680346F5
:101560000022D8210290952002F04EFE34E002F0D5
:1015700053FC68BB02F050FC102829D100F056FC47
:1015800000F0CAFB48B91A4845610420184948735D
:101590000021164803F0DDFAC4E700F02FF801201F
:1015A000FFF728FE05462846FFF727F8064632468D
:1015B0000B460BA103A803F0D3FC03A800900A4834
:1015C000006803460022D8210290952002F01CFEFC
:1015D00002E002E0FFE700BF00BF10E74400002088
:1015E000252E316600000000220000200008004087
:1015F0007000002025643A25303264000EB5FF20CB
:1016000003F00EF802F046FD032040234FF4F07281
:1016100000210090084602F037FF032003F000F895
:1016200054480521CDE90010534800680346FF22C5
:1016300010210290A02002F074FDFC2250218800AD
:1016400000F0E4F9FC2290214FF4A07000F0C2FAFF
:10165000FC22A021480000F00DFBFF2002F0E0FF7B
:1016600046480621CDE9001045480068034600229F
:1016700060210290052002F054FD42480121CDE98D
:1016800000103F4800680346002288210290052090
:1016900002F047FD394848300521CDE900103848AF
:1016A000006803460022882102901D2002F039FDC7
:1016B00035480121CDE90010314800680346002279
:1016C000B0210290052002F02CFD2F484830022165
:1016D000CDE900102A48006803460022B02102909C
:1016E000652002F01EFD28480221CDE900102448A3
:1016F000006803460022D8210290052002F011FD67
:10170000214848300121CDE900101D4800680346FA
:101710000022D8210290352002F003FD1748D8306E
:101720000321CDE900101648006803460022D821A5
:1017300002904D2002F0F5FC14480221CDE9001082
:101740000F48006803460022D82102904FF48C70A5
:1017500002F0E7FC0948D8300321CDE90010084821
:10176000006803460022D82102904FF4A47002F0D2
:10177000D8FC0EBDE09A00082E000020609D0008F5
:1017800026000020109F0008E89F0008C0A0000865
:1017900010B514E002F040FB88B1032807D00728F9
:1017A00004D00C2804D0102807D102E000BF00BFED
:1017B00000BF0621024A517310BD00BF00BFE9E718
:1017C000700000203EB5FF206023A8225821009021
:1017D0009C2002F059FE02220421084602F0E4FE99
:1017E000044658234FF4A272194600909C2002F040
:1017F0008EFD02220421084602F0D6FE0446B823DC
:101800004FF4A272194600909C2002F080FD022243
:101810000421084602F0C8FE0446B8239C22582141
:101820000090104602F073FD02220421084602F0E7
:10183000BBFE0446B8234FF4A27258210090104614
:1018400002F065FDFF2002F0EBFE0D480621CDE918
:1018500000100C4800680346002264210290A82072
:1018600002F05FFC08480621CDE900100548006839
:101870000346002294210290A82002F052FC3EBDB3
:1018800010AF000826000020C0B000082DE9F0438A
:1018900085B004460D4616469946082C35DA3C209C
:1018A000B5FBF0F100FB1157B5FBF0F83B464246A3
:1018B00051A102A803F054FB02A81A22009004FBD5
:1018C00002F000F145014E48006803464A46019087
:1018D000052002F099FC3046FEF78FFE07463A4697
:1018E0000B4648A102A803F03BFB02A81A22009075
:1018F00004FB02F000F145014148006803464A46F6
:101900000190552002F080FC72E00F2C35DA3C206B
:10191000B5FBF0F100FB1157B5FBF0F83B46424632
:1019200035A102A803F01CFB02A80090E01F1A22B8
:101930005043453081B23248006803464A46019020
:10194000A52002F061FC3046FEF757FE07463A46F6
:101950000B462CA102A803F003FB02A80090E01F95
:101960001A225043453081B22548006803464A4652
:101970000190F52002F048FC3AE0152C38DA3C20C2
:10198000B5FBF0F100FB1157B5FBF0F83B464246C2
:1019900019A102A803F0E4FA02A80090A4F10D0036
:1019A0001A225043453081B21548006803464A4622
:1019B000019040F2451002F027FC3046FEF71DFE74
:1019C00007463A460B460FA102A803F0C9FA02A83F
:1019D0000090A4F10D001A225043453081B208480E
:1019E000006803464A46019040F2951002F00CFC54
:1019F00005B0BDE8F083000025643A25303264006C
:101A00001A000020252E316600000000FEB50446B5
:101A10000D46164604F1200188B2082320222946EB
:101A2000009602F031FD05F1080291B204F128029E
:101A300090B208231022009602F026FD05F1100056
:101A400081B2302360222046009602F01DFD002066
:101A500004F140018AB22039009088B22B46294611
:101A600002F055FC002005F108018BB204F12001C1
:101A70008AB2009088B2294602F049FC002005F1A4
:101A800008018BB204F140018AB2009088B2294665
:101A900002F03DFC002005F10807BBB204F1280765
:101AA000BAB205F10807B9B204F120070090B8B244
:101AB00002F02DFC002005F10807BBB204F140073D
:101AC000BAB205F10807B9B204F138070090B8B20C
:101AD00002F01DFC002005F11007BBB204F128073D
:101AE000BAB205F10807B9B204F128070090B8B2FC
:101AF00002F00DFC002005F11007BBB204F138071D
:101B0000BAB205F10807B9B204F138070090B8B2CB
:101B100002F0FDFB0020009005F1100083B204F1FB
:101B2000280082B205F1100081B2204602F0EFFBDE
:101B3000002005F11007BBB204F16007BAB205F14D
:101B40001007B9B204F138070090B8B202F0DFFB19
:101B50000020009005F1400083B2303881B2224667
:101B6000204602F0D4FB002005F14007BBB204F18F
:101B70006007BAB205F11007B9B204F1600700902E
:101B8000B8B202F0C4FB0020009005F1400083B21F
:101B9000384682B205F1400081B2204602F0B7FB20
:101BA000304602F03DFD0948032105F12002CDE950
:101BB000001091B204F1180290B2054A126813465F
:101BC0000292002202F0ADFAFEBD0000D0A600088D
:101BD0001E000020FEB504460D4616461023602266
:101BE00029462046009602F04FFC304602F018FDD0
:101BF0001E480521CDE9001004F1080188B21C49F6
:101C000009680B4600220291294602F08AFA002058
:101C1000009004F1600082B22B462946204602F073
:101C200076FB0020009005F1100083B22246294681
:101C3000204602F06CFB002005F110018BB204F18C
:101C400060018AB2009088B2294602F060FB002051
:101C5000009005F1100083B204F1600082B205F13A
:101C6000100081B2204602F052FBFEBD90A7000892
:101C70001E000020FEB504460D46164630236022A5
:101C800029462046009602F0FFFB0020009004F158
:101C9000600082B22B462946204602F038FB002025
:101CA000009005F1300083B222462946204602F01A
:101CB0002EFB002005F130018BB204F160018AB2E5
:101CC000009088B2294602F022FB0020009005F126
:101CD000300083B204F1600082B205F1300081B2BD
:101CE000204602F014FB304602F09AFC084803211B
:101CF00005F11002CDE9001091B204F1180290B282
:101D0000044A126813460292002202F00AFAFEBD4B
:101D100030A700081E0000203EB5002480E002F03D
:101D20007BF80546002D7BD0032D3CD0072D02D03B
:101D3000102D73D170E0002C34DD601EC4B21F2062
:101D40001723302295210090912002F09DFBFF2067
:101D5000172330229521009040F2211002F094FBCD
:101D60001F2002F05DFC2F480221CDE900102E4813
:101D700000680346002298210290084602F0D1F93B
:101D8000FF2002F04DFC274840300221CDE9001031
:101D90002548006803460022982102904FF4947071
:101DA00002F0BFF93BE0012C34DA601CC4B2FF2022
:101DB0001723302295210090912002F065FB1F200F
:101DC000172330229521009040F2211002F05CFB95
:101DD000FF2002F025FC13480221CDE90010124833
:101DE00000680346002298210290084602F099F903
:101DF0001F2002F015FC0B4840300221CDE90010F5
:101E00000948006803460022982102904FF494701C
:101E100002F087F903E001E020463EBD00BF00BFAD
:101E20007DE70000F0AA00081E0000203EB5FF205C
:101E30006023D82258210090842002F025FB022242
:101E40000421084602F0B0FB044658234FF4AE725A
:101E500019460090842002F05AFA02220421084612
:101E600002F0A2FB0446B8234FF4AE72194600906C
:101E7000842002F04CFA02220421084602F094FB6E
:101E80000446B823842258210090104602F03FFAFD
:101E900002220421084602F087FB0446B8234FF4CF
:101EA000AE7258210090104602F031FA52480821D3
:101EB000CDE90010514800680346002264210290D9
:101EC000902002F02EF902220421084602F06CFB59
:101ED00004469423C12219460090902002F017FA7C
:101EE00002220421084602F05FFB0446AC23C12213
:101EF00019460090902002F00AFA022204210846B6
:101F000002F052FB0446AC2390229421009010462C
:101F100002F0FDF902220421084602F045FB0446C6
:101F2000AC23C12294210090104602F0F0F9022265
:101F30000421084602F038FB0446942340F2511273
:101F4000194600904FF4907002F0E1F9022204214A
:101F5000084602F029FB0446AC2340F25112194610
:101F600000904FF4907002F0D2F90222042108464A
:101F700002F01AFB0446AC234FF4907294210090B7
:101F8000104602F0C4F902220421084602F00CFBBC
:101F90000446AC2340F2511294210090104602F006
:101FA000B6F91F201723302295210090912002F0CE
:101FB0006BFA1F2002F034FB11480221CDE900101A
:101FC000104800680346002298210290084602F05B
:101FD000A8F8FF2002F024FB094840300221CDE997
:101FE00000100848006803460022982102904FF430
:101FF000947002F096F83EBDB0A8000826000020BC
:10200000F0AA00081E0000202DE9F04186B000BFB4
:1020100001F002FF1028FBD00121424802F027FD09
:102020007EE0414801F096F80020FFF7E3F8804693
:102030000120FFF7DFF805464046FEF7DEFA0646C8
:1020400032460B4639A103A802F08AFFFF2018236D
:1020500050227C210090952002F016FA03A80090EF
:1020600034480068034600227C210290952002F04B
:10207000CBF82846FEF7C1FA064632460B462BA19E
:1020800003A802F06DFFFF2018235022BC2100900E
:10209000952002F0F9F903A800902648006803464D
:1020A0000022BC210290952002F0AEF801F0B4FEAF
:1020B00004467CB3072C02D0102C2FD114E001F081
:1020C000ABFE80B901F0A8FE07280CD101F0A4FEF8
:1020D00048B901F0A1FE072805D10320164948732D
:1020E00006B0BDE8F0811AE001F096FEA8B901F053
:1020F00093FE102811D1FFF799FEFFF70DFE50B99E
:102100000D48856105200C4948730021054802F0FF
:1021100020FDE5E704E000F011F800E000BF00BF9B
:102120007FE70000000800400000A042252E316635
:102130000000000022000020700000200EB5FF20EB
:1021400002F06EFA01F0A6FF032040234FF4F07274
:1021500000210090084602F097F9032002F060FA8F
:1021600022480521CDE90010214800680346FF22DE
:1021700010210290A02001F0D4FFFC2264214FF432
:10218000A070FFF743FCFC22A4214FF4A070FFF7DE
:1021900071FDFF2002F044FA16480621CDE9001037
:1021A00015480068034600227C210290052001F0BA
:1021B000B8FF12480121CDE900100F48006803461E
:1021C0000022BC210290052001F0ABFF09484830F5
:1021D0000521CDE900100848006803460022BC2113
:1021E00002901D2001F09DFF0EBD000050A10008CF
:1021F0002E000020609D000826000020109F00088F
:102200002DE9FC410024C427002500BF01F004FE95
:102210001028FBD04E48009400680346E022A82115
:102220000190384601F0A3FF90E001F0F5FD06466D
:10223000002EF9D0102E34D004DC032E18D0072E37
:1022400078D104E0132E6FD0152E73D164E0002DE9
:102250000DDD681EC5B2FF2018231022A8210090B2
:10226000384602F011F9A7F1100087B2002462E0AD
:10227000092D15DA36480094006803460022A8218B
:102280000190384601F073FF04F13000C2B22846D5
:10229000691CCDB22F490A5407F1100087B20024FF
:1022A00049E001F0B9FDB0BB01F0B6FD102832D114
:1022B000FFF7BCFDFFF730FD80B904F13000C2B27A
:1022C0002846691CCDB223490A54002121484155B2
:1022D00002202049491E4873BDE8FC8100F03CF80B
:1022E000C4274FF0000814E01A4810F808003038EE
:1022F00000901748006803460022A8210190384644
:1023000001F035FF07F1100087B208F1010000F07D
:10231000FF08A845E8DB0EE0601CC4B2092C00DD14
:10232000002408E006E0FFE7601EC4B2092C00DDCF
:10233000092400E000BF00BF054800940068034680
:10234000E022A8210190384601F011FF6DE700005E
:1023500022000020710000200EB5FF2002F060F97D
:1023600001F098FE032040234FF4F072002100900A
:10237000084602F089F8032002F052F913480521BB
:10238000CDE90010124800680346FF221021029098
:10239000A02001F0C6FEFF2002F042F90D48032103
:1023A000CDE900100C48006803460022A8210290E5
:1023B0007C2001F0B6FE0020C2234FF4B272194611
:1023C0000090C42001F0A3FF0EBD00008895000816
:1023D0002E00002008980008260000202DE9F0417A
:1023E000012400BF01F018FD1028FBD00020424955
:1023F00008607FE00120FEF7FDFE0746E0233A4635
:102400003D4801682046FFF741FA01F005FD064608
:10241000002E6FD0072E04D00C2E16D0102E67D1B0
:1024200029E001F0F9FC78B901F0F6FC07280BD19E
:1024300001F0F2FC40B901F0EFFC072804D10420C0
:102440002E494873BDE8F08153E0142C12DC2A4871
:102450000268601E29491C3141F8302001EBC000A0
:1024600047602046621CD4B200233A4622490968DC
:10247000FFF70CFA3DE001F0CFFCC0BB01F0CCFC53
:10248000102834D1FFF7D2FCFFF746FCC0B9142C5A
:1024900012DC19480268601E18491C3141F83020CE
:1024A00001EBC00047602046621CD4B200233A46CC
:1024B00011490968FFF7EAF9062010494873C1E796
:1024C00000F01EF800250FE00C4B1C3303EBC50396
:1024D0005A680A4B1C3353F835106B1CD8B20023D2
:1024E000FFF7D4F9681CC5B2601EA842ECDC00E01E
:1024F00000BF00BF7EE70000440000207000002005
:102500000EB5FF2002F08CF801F0C4FD032040233B
:102510004FF4F07200210090084601F0B5FF03204F
:1025200002F07EF87A480621CDE90010794800686B
:102530000346FF2210210290902001F0F2FDFC22C0
:1025400042214FF4B070FFF795FB002040234FF479
:10255000A0721946009001F0DAFE00205A234FF4D1
:10256000A0721946009001F0D2FE0020742340F2C0
:10257000DF121946009001F0CAFE00208E2340F2BF
:10258000DF121946009001F0C2FE0020A82340F29D
:10259000DF121946009001F0BAFE0020C22340F27B
:1025A000DF121946009001F0B2FE0020DC2340F259
:1025B000DF121946009001F0AAFE0020F62340F237
:1025C000DF121946009001F0A2FE002040F20F1326
:1025D000502240210090104601F099FE002040F268
:1025E0000F13A02240210090104601F090FE002021
:1025F00040F20F13F02240210090104601F087FEB8
:10260000002040F20F134FF4A072402100901046BA
:1026100001F07DFE002040F20F134FF4C8727421C8
:102620000090104601F073FEFF2001F0F9FF3A48D8
:102630000121CDE9001039480068034600224521F8
:102640000290102001F06DFD334820300121CDE9CA
:1026500000103248006803460022452102903020D5
:1026600001F05FFD2C4840300121CDE900102B48DE
:1026700000680346002245210290B02001F051FD80
:10268000254860300121CDE9001024480068034648
:10269000002245210290D02001F043FD1E48012177
:1026A000CDE900101D480068034600224521029034
:1026B000602001F036FD184820300121CDE90010DE
:1026C000164800680346002245210290802001F050
:1026D00028FD114840300121CDE900100F48006865
:1026E00003460022452102904FF4807001F019FD4D
:1026F000094860300121CDE9001008480068034610
:102700000022452102904FF4907001F00AFD0EBDA9
:10271000D0A300082E00002030A800081E000020D2
:1027200010B528E001F078FB044624B3072C02D052
:10273000102C1FD112E001F06FFB70B901F06CFB9F
:1027400007280AD101F068FB38B901F065FB0728BA
:1027500003D105200849487310BD0BE001F05CFB74
:1027600038B901F059FB102803D1072002494873FA
:10277000F2E700BF00BFD5E77000002000B587B0CA
:10278000FF2001F04DFF01F085FC032040234FF4B2
:10279000F07200210090084601F076FE032001F05F
:1027A0003FFFFE480421CDE90010FD4800680346C4
:1027B000FF2210210390B02001F0B3FC0020402341
:1027C0004FF4AC721946009001F0A1FD00205A238D
:1027D0004FF4AC721946009001F099FD002074236B
:1027E00040F2DF121946009001F091FD00208E2387
:1027F00040F2DF1219460090482001F088FD0020C9
:10280000A82340F2DF121946009001F080FD00205D
:10281000C22340F2DF121946009001F078FD00203B
:10282000DC2340F2DF1219460090482001F06FFDD2
:102830000020F62340F2DF121946009001F067FDF8
:10284000002040F20F13482240210090104601F072
:102850005EFD002040F20F138C22402100901046B4
:1028600001F055FD002040F20F13D02240210090CE
:10287000104601F04CFD002040F20F135A1D40217C
:102880000090104601F043FD002040F20F134FF47A
:10289000AC7240210090104601F039FD002040F25A
:1028A0000F134FF4CF7274210090104601F02FFDEA
:1028B000FF2001F0B5FEBB480121CDE90010BA4868
:1028C00000680346002245210390522001F029FCB4
:1028D000B44820300121CDE90010B3480068034618
:1028E000002245210390722001F01BFCAD484030CE
:1028F0000121CDE90010AC480068034600224521C3
:102900000390DA2001F00DFCA64860300121CDE9EA
:102910000010A54800680346002245210390FA20D4
:1029200001F0FFFB9F480121CDE900109E4800689F
:102930000346002245210390962001F0F2FB9948BE
:1029400020300121CDE9001097480068034600229D
:1029500045210390B62001F0E4FB9248403001216C
:10296000CDE90010904800680346002245210390FD
:102970004FF48F7001F0D5FB8A4860300121CDE91A
:1029800000108948006803460022452103904FF457
:102990009F7001F0C6FB85480421CDE900108248F4
:1029A00000680346002245210390042001F0B9FB92
:1029B0007E4880300321CDE900107B480068034643
:1029C0000022792103900C2001F0ABFB77484030C6
:1029D0000221CDE9001074480068034600229321CB
:1029E0000390142001F09DFB7048E0300321CDE9F5
:1029F00000106D48006803460022C72103900C2098
:102A000001F08FFB694840300221CDE90010664893
:102A1000006803460022E1210390142001F081FBAD
:102A200063480321CDE900105F4800680346002297
:102A3000522103904FF4AE7001F073FB5D4800909B
:102A40005D48006803460022522103904FF4C6708F
:102A500001F0DAFB5748401E00690190FDF7CDFDFB
:102A600002460B46CDE9020154A105A802F078FA0E
:102A700005A8009050480068034600225F2103909B
:102A8000142001F0C1FB4B48401E40690190FDF746
:102A9000B4FD02460B46CDE9020148A105A802F0AB
:102AA0005FFA05A800904448006803460022AD2163
:102AB0000390142001F0A8FB3E48401E806901905D
:102AC000FDF79BFD02460B46CDE902013BA105A89F
:102AD00002F046FA05A80090374800680346002235
:102AE000FB210390142001F08FFB002004900CE1E7
:102AF00030481B30049950F831003C21B0FBF1F212
:102B000001FB120003902B481B30049950F8310050
:102B10003C21B0FBF1F0029002462AA105A8039BDC
:102B200002F01EFA05A800901A21049848435F306D
:102B30000290214800680346002203905620029923
:102B400001F062FB1B481B30049900EBC100406898
:102B50000190FDF752FD02460B46CDE9020117A197
:102B600005A802F0FDF905A800901A210498484331
:102B70005F300290104800680346002203909E20B8
:102B8000029901F041FB0B491B310498C01D51F81B
:102B900030003C21B0FBF1F21AE0000070AB0008FD
:102BA0002E00002030A800081E00002070AD000894
:102BB000B0AE0008710000201A000020252E3166FA
:102BC00000000000253032643A25303264000000F5
:102BD00001FB1200504903900498C01D51F83000C9
:102BE0003C21B0FBF1F002900246AFF2280105A8AB
:102BF000039B02F0B5F905A800901A2104984843F8
:102C00005F30029045480068034600220390DE20B2
:102C1000029901F0F9FA40490498C01D01EBC00087
:102C200040680190FDF7E9FC02460B46CDE9020140
:102C3000AFF2780105A802F093F905A800901A21D7
:102C4000049848435F3002903448006803460022ED
:102C500003904FF49370029901F0D6FA04980E3065
:102C600014284EDA2C4904980E3051F830003C21DB
:102C7000B0FBF1F201FB12002749039004980E30DB
:102C800051F830003C21B0FBF1F002900246AFF267
:102C9000CC0105A8039B02F063F905A800901A2156
:102CA00004984843793002901C480068034600228B
:102CB000039040F26710029901F0A6FA16490498B1
:102CC0000E3001EBC00040680190FDF796FC024613
:102CD0000B46CDE90201AFF21C1105A802F040F944
:102CE00005A800901A2104984843793002900B48B7
:102CF00000680346002203904FF4D770029901F058
:102D000083FA0498401CC0B2049004980728FFF688
:102D1000EFAE07B000BD00008C0000201A000020BC
:102D200030B593B000243C229F4903A8FDF71CFA5C
:102D30009E4800788DF848009D4800788DF849003D
:102D40001F2001F06DFC2EE101F066F80546002D14
:102D5000F9D0102D7DD004DC032D07D0072D79D1BB
:102D600051E0132D77D0152DF9D1B7E0022C49DAB7
:102D7000FF2001F055FCFF20009004EB44004022AE
:102D800002EB001081B22F234FF4F072002001F00B
:102D90007BFB04EB840003A901EB8000009004EBB3
:102DA00044004C2202EB001081B2824800680346C6
:102DB00000220290052001F027FA12A8005D009081
:102DC00004EB44004C2202EB001081B27948006809
:102DD0000346002202904FF4A07001F0C8F9601C75
:102DE00044B21F2001F01CFC1F20009004EB4400A3
:102DF000402202EB001081B22F234FF4F07200202A
:102E000001F042FB77E0002C4DDDFF2001F008FCD3
:102E1000FF20009004EB4400402202EB001081B23E
:102E20002F234FF4F072002001F02EFB04EB8400FE
:102E300003A901EB8000009004EB44004C2202EB5C
:102E4000001081B25B480068034600220290052012
:102E500002E029E04EE047E001F0D6F912A8005D5B
:102E6000009004EB44004C2202EB001081B2514868
:102E700000680346002202904FF4A07001F077F939
:102E8000601E44B21F2001F0CBFB1F20009004EB1A
:102E90004400402202EB001081B22F234FF4F07265
:102EA000002001F0F1FA26E000F0B6FFA8B900F02A
:102EB000B3FF102811D19DF848003C4908703E49E5
:102EC00008809DF849003A4908703B494880022132
:102ED000394801F067F813B030BD0CE012A8005D6E
:102EE000401C12A9085506E012A8005D401E12A958
:102EF000085500E000BF00BF12A8005D012807DBF5
:102F00009DF848001E2803DC9DF84900072802DDD3
:102F1000012012A908551F2001F082FB04EB840058
:102F200003A901EB8000009004EB44004C2202EB6B
:102F3000001081B21F48006803460022029005205D
:102F400001F062F91F20009004EB44004C2202EBD8
:102F5000001081B2182320224FF4A07001F094FADF
:102F600012A8005D009004EB44004C2202EB00101C
:102F700081B2104800680346002202904FF4A0700E
:102F800001F0F5F8022C02D0FF2001F049FB0BA064
:102F900000900848006803460022AC2102904FF4DC
:102FA000A07001F031F9CFE6540A0108700000204A
:102FB000140000202200002016000020302E324293
:102FC000657461001CB5FF2001F02AFB01F062F876
:102FD000032040234FF4F07200210090084601F0D6
:102FE00053FA032001F01CFB45A0009047480068FD
:102FF0000346FF2210210190B02001F005F91F20A7
:1030000001F00EFB1F202F234FF4F072402100909F
:10301000002001F039FA3EA00090414800680346C4
:1030200000224C210190052001F0EEF83D48007887
:1030300000903B480068034600224C2101904FF469
:10304000A07001F094F801221146104601F0ACFA8C
:1030500004466F2340F2DF1219460090002001F071
:1030600056F9FF2001F0DCFA2FA000902C480068F0
:10307000034600227C210190052001F0C5F82D486F
:103080000078009026480068034600227C210190C9
:103090004FF4A07001F06BF801221146104601F0C8
:1030A00083FA04469F2340F2DF1219460090002065
:1030B00001F02DF920A00090194800680346002275
:1030C000AC210190052001F09FF820A00090144849
:1030D000006803460022AC2101904FF4A07001F07B
:1030E00093F801221146104601F05EFA0446CF2300
:1030F00040F2DF1219460090002001F008F91CBDD3
:1031000053657474696E6773000000002A00002024
:103110004D616368696E65204E756D626572000071
:1031200022000020700000204272696768746E659A
:103130007373000014000020536F6674776172652A
:103140002056657273696F6E00000000302E3242A7
:10315000657461002DE9F04704460020FEF74AF847
:1031600080460220FEF746F8814621494846FDF791
:103170007DFA04D2002000F081FFBDE8F0871D49F0
:103180002046FDF717F905464146FDF76FFA03D2D1
:10319000642000F073FF28E017492046FDF7B8F8D7
:1031A00005464146FDF762FA13D241462046FDF737
:1031B00001F982461149FDF703F907461049FDF769
:1031C000A7F80646FDF705FAC5B2284600F056FFF7
:1031D0000BE009492046FDF79BF805464146FDF7FF
:1031E0003BFA02D2002000F049FF00BFC5E7000013
:1031F0000000C8420000A0400000404000005041D4
:1032000000000C42FEB5002002904FF49E76002490
:103210009DF8080000906B4800680346E022A82152
:103220000190304600F0A3FF9DF80900009006F1E0
:103230001000644909680B4600220191A82100F0A2
:1032400096FF00BF00F0E8FD1028FBD0B9E000F0C9
:10325000E3FD0546002DF9D0102D50D004DC032DE0
:1032600039D0072D7ED104E0132D7CD0152DF9D156
:1032700081E0002C10DD02A8005D0090514800683C
:1032800003460022A8210190304600F070FF601E26
:10329000C4B2A6F1100086B202A8005D00904948B1
:1032A00000680346E022A8210190304600F05FFF4D
:1032B00000F0B2FD70B900F0AFFD07280AD100F0B0
:1032C000ABFD38B900F0A8FD072803D101203E4925
:1032D0004873FEBD68E0012C10DA02A8005D009082
:1032E0003848006803460022A8210190304600F0CB
:1032F0003EFF601CC4B206F1100086B254E000F03C
:103300008BFD88BB00F088FD102833D1FEF78EFDC1
:10331000FEF702FD70B99DF809109DF8082002EB38
:10332000820201EB4200FDF72DF9274908610320D5
:103330004873CEE700F04AF89DF808000090214855
:10334000006803460022A82101904FF49E7000F00F
:103350000EFF9DF8090000901A48006803460022FD
:10336000A82102E01FE012E004E001904FF4A670F3
:1033700000F0FDFE18E002A8005D401C02A90855FF
:1033800002A8005D092801DD002008550CE002A814
:10339000005D401E02A9085502A8005D092801DD54
:1033A0000920085500E000BF00BF02A8005D0090A2
:1033B000044800680346E022A8210190304600F04E
:1033C000D6FE44E722000020700000200EB5FF204A
:1033D00001F026F900F05EFE032040234FF4F07266
:1033E00000210090084601F04FF8032001F018F981
:1033F0001A480421CDE90010194800680346FF224D
:1034000010210290B02000F08CFEFF2001F008F99E
:1034100014480221CDE90010134800680346002239
:10342000A82102907C2000F07CFE10480621CDE906
:1034300000100D48006803460022A8210290AC202D
:1034400000F06FFE0020C2234FF4AE7219460090C8
:103450004FF49E7000F05BFF0EBD0000E098000886
:103460002E000020589F000826000020609D0008C4
:10347000F0B587B00546002449480078082801DAED
:1034800007B0F0BD474803782A4647A102A801F0DB
:1034900067FD02A800F03CFB25B1012D03D0022DF1
:1034A00077D10AE076E03F4A521C42A102A801F01F
:1034B00057FD02A800F02CFB6CE03A48407B022844
:1034C0000BD03848407B032807D03648407B04287F
:1034D00003D03448407B052859D132490869FDF7AB
:1034E0008CF8064632460B4633A102A801F038FD9F
:1034F00002A800F00DFB2B48407B022800D149E0D8
:1035000028494869FDF779F8064632460B462AA154
:1035100002A801F025FD02A800F0FAFA2148407B3C
:10352000032800D136E01F498869FDF766F8064692
:1035300032460B4620A102A801F012FD02A800F0BD
:10354000E7FA1848407B042800D123E018E0132C48
:1035500000DD1BE013491C3101EBC4014868FDF795
:103560004CF8CDE900010F481C3050F8342014A16C
:1035700002A801F0F5FC02A800F0CAFA601CC4B26F
:1035800008481C3050F834000028E0D100BF01E0AA
:10359000FFE700BF00BF0DA000F0BAFA00BF6FE761
:1035A0004C0000207000002073656E642D25642D92
:1035B000256400002D2573002D252E3166000000A6
:1035C0002D25642D252E3166000000000D0A000017
:1035D0003EB5FF2001F024F800F05CFD3D48962345
:1035E0001A463C210090002000F068FE022211469D
:1035F000002000F0D9FF044637480A21CDE9001029
:1036000036480068034622465A2102909B2000F06B
:1036100088FD02221146002000F0C6FF0446304813
:103620000C21CDE900102F48006803462246962160
:103630000290AB2000F075FD02221146002000F040
:10364000B3FF044628480821CDE900102748006848
:1036500003462246F2210290A82000F062FD0222D9
:103660001146002000F0A0FF044621A00090214850
:10367000006803462246F22102904FF4947000F055
:10368000C3FD0020FDF728FD38B10120FDF724FD22
:1036900018B10220FDF720FDD0B9FF201023982299
:1036A000F2210090A82000F0EFFE02221146002037
:1036B00000F07AFF044610481021CDE900100B48B5
:1036C000006803462246F2210290702000F029FD96
:1036D0003EBD000070B20008288A00082E000020BD
:1036E000288F000826000020889200081E00002075
:1036F0002E2E2E001A0000208893000808B50720FF
:10370000ADF8000003208DF8020004208DF80300BE
:103710000121202001F01CF86946024800F091FACE
:1037200008BD00000014014010B501215A4800F006
:103730005BFB5A4991F90010884201D1002010BD6D
:103740000121554800F050FB544991F9001088427E
:103750007ED00121504800F047FB012838D1504865
:103760000078012807D102214B4800F03DFB10B939
:103770004FF0FF3462E04A48007838B902214648E9
:1037800000F032FB012801D1012457E00221424818
:1037900000F02AFB424991F90010884207D102212A
:1037A0003D4800F021FB10B94FF0FF3446E0022104
:1037B000394800F019FB3A4991F9001088423DD18F
:1037C0000221354800F010FB012837D1012435E0F3
:1037D00033480078012806D102212F4800F004FB6D
:1037E00008B901242AE02E48007838B902212A4875
:1037F00000F0FAFA012801D1841E1FE002212648B8
:1038000000F0F2FA264991F90010884206D102210F
:10381000214800F0E9FA08B901240FE002211E480E
:1038200000F0E2FA1E4991F90010884206D1022107
:10383000194800F0D9FA012800D1841E0121164848
:1038400000F0D2FA40B2154908700221124800E097
:1038500004E000F0C9FA40B21149087004210E4892
:1038600000F0C2FA48B90CB9022406E0012C00D1DC
:103870000324601C08B96FF002040A4890F90000A4
:10388000844203D007480470002402E00020054968
:103890000870204653E70000001401406B00002030
:1038A0006C0000206E00002010B5B4B004460A2061
:1038B00001F0D8FF082C3BD2DFE804F0040B0F190D
:1038C0001D2132361CA000F023F91E2001F0CAFF92
:1038D00000BF1AA000F01CF92BE01C4B1C4A1DA1D4
:1038E00002A801F03DFB02A800F012F921E01FA0A0
:1038F00000F00EF91DE021A000F00AF919E02248BD
:10390000016822488068CDE900012048436820A171
:10391000026802A801F024FB02A800F0F9F808E010
:1039200024A000F0F5F804E026A000F0F1F800E093
:1039300000BF00BF34B010BD0D0A000041542B433E
:10394000574D4F44453D310D0A00000059000020FD
:103950005400002041542B43574A41503D222573C7
:10396000222C222573220D0A0000000041542B4313
:1039700049504D55583D300D0A00000041542B432D
:10398000494653520D0A000050000020F401002067
:1039900041542B43495053544152543D22544350B7
:1039A000222C2225642E25642E25642E31222C25DE
:1039B000640D0A0041542B4349504D4F44453D315D
:1039C0000D0A000041542B43495053454E440D0A03
:1039D000000000001FB504460020039002902F480D
:1039E00001880088401C2D4A10802D484454104600
:1039F0000088C72802DD0020114608800A2C4BD120
:103A000000202749254A128888542648007808282B
:103A100018DA22480088C01E085C4B2812D10A2000
:103A200001F020FF1F480078FFF73EFF1D48007897
:103A3000401C1C49087008460078082802D1002064
:103A4000FFF716FD17480078052809D11648011F11
:103A50000B1F1A1FCDE9001014A11148FCF796FBAB
:103A600010480078082814D102AB03AA17A10C480B
:103A7000FCF78CFB184800780299884204D103991E
:103A8000C8B2FFF7F5FC04E0029810B90020FFF778
:103A9000EFFC0020014908801FBD000068000020E5
:103AA000040200204C000020000200202B43494665
:103AB00053523A53544149502C2225642E25642EEA
:103AC00025642E2564220D0A000000007263762D05
:103AD00025642D25640D0A007000002010B500201B
:103AE0000549087008460078FFF7DEFE02480078B6
:103AF000801C0149087010BD4C00002010B5044620
:103B00002146024801F023FA10BD000000380140B0
:103B100010B5044603E02078FFF7F0FF641C20781E
:103B20000028F8D110BD000030B5054604244FF43C
:103B3000302000F073F80446042C19D10D480069B8
:103B400040F002000B49086108464561006940F0F9
:103B5000400008614FF4302000F060F80446052C66
:103B600006D00448006941F6FD710840014908612A
:103B7000204630BD0020024004200B49C96801F0F6
:103B8000010109B101200EE00749C96801F00401F3
:103B900009B1022007E00449C96801F0100109B128
:103BA000032000E004207047002002400348006921
:103BB00040F0800001490861704700000020024089
:103BC00070B505460E460424E00200F027F80446CE
:103BD000042C13D10A48006940F00100084908612B
:103BE0002E80E00200F01AF80446052C06D00448A6
:103BF000006941F6FE71084001490861204670BD28
:103C0000002002400248034948600348486070476A
:103C10002301674500200240AB89EFCD00B5024685
:103C20000423FFF7A9FF034603E0FFF7A5FF0346C0
:103C3000521E012B01D1002AF7D102B905231846E3
:103C400000BD2DE9F041024600250026002000239A
:103C50000024002791F803C00CF00F0591F803C071
:103C60000CF0100CBCF1000F03D091F802C04CEA2C
:103C7000050591F800C0BCF1000F31D01468002098
:103C80002BE04FF0010C0CFA00F3B1F800C00CEA85
:103C900003069E4220D183004FF00F0C0CFA03F76D
:103CA000BC4305FA03FC4CEA040491F803C0BCF1E0
:103CB000280F06D14FF0010C0CFA00FCC2F814C01A
:103CC0000AE091F803C0BCF1480F05D14FF0010C98
:103CD0000CFA00FCC2F810C0401C0828D1D31460B4
:103CE000B1F800C0BCF1FF0F34DD546800202EE0B5
:103CF00000F1080C4FF0010808FA0CF3B1F800C00D
:103D00000CEA03069E4221D183004FF00F0C0CFAFF
:103D100003F7BC4305FA03FC4CEA040491F803C022
:103D2000BCF1280F05D100F1080C08FA0CF8C2F814
:103D3000148091F803C0BCF1480F07D100F1080CC2
:103D40004FF0010808FA0CF8C2F81080401C08284F
:103D5000CED35460BDE8F081F0B50A4600230024BC
:103D60000021002500F00046B6F1004F02D11D4EA3
:103D7000F16901E01B4E7168C0F3034583B200F4A2
:103D80004016B6F5401F08D121F07061154E7668D7
:103D900026F07066134F7E6012E000F48016B6F5D0
:103DA000801F06D1032606FA05F4A14341F0706195
:103DB00006E0460D360103FA06F6B14341F07061A4
:103DC00022B1460D360103FA06F6314300F00046F3
:103DD000B6F1004F02D1034EF16101E0014E716076
:103DE000F0BD0000000001400246002093680B4037
:103DF0000BB1012000E0002070470146C86880B286
:103E000070474161704701617047C16070470AB1F6
:103E1000016100E0416170472DE9F843002400276B
:103E200024A000680090002639E01DF8060000F08C
:103E300089F846F2A8180BE0FFF776FC054625B195
:103E400005F11400C0B2BDE8F883012001F032FD95
:103E5000B8F10000A8F101011FFA81F8ECD100F0DF
:103E600051F8072811D00B280BD00D2805D00E28AB
:103E70000FD1601CC4B227460CE0A01CC4B2274678
:103E800008E0E01CC4B2274604E0201DC4B2274667
:103E900000E000BF00BF201DC4B2701CC6B2042EDB
:103EA000C3DB05480078874200D10027024807702D
:103EB0003846C8E70E0D0B076A00002008B5102031
:103EC0008DF803000F20ADF8000003208DF80200EC
:103ED0000121042000F03CFC69460948FFF7B1FECF
:103EE00048208DF80300F020ADF8000001210420E7
:103EF00000F02EFC69460248FFF7A3FE08BD000053
:103F00000008014010B5002410210D48FFF76CFF98
:103F1000044320210A48FFF767FF44EA4000C4B287
:103F200040210748FFF760FF44EA8000C4B28021C7
:103F30000348FFF759FF44EAC000C4B2204610BD51
:103F40000008014010B5044604F0010201210B48AD
:103F5000FFF75DFF04F0020202210848FFF757FF58
:103F600004F0040204210548FFF751FF04F00802A1
:103F700008210248FFF74BFF10BD00000008014078
:103F800010B502460B46064903E031F8020B22F851
:103F9000020B181EA3F10104A3B2F6D1012010BD3B
:103FA00000FC07082DE9F04104460D46124FFFF7CB
:103FB00029FE3846FFF7B8FD0646042E04D0FFF769
:103FC000F5FD0020BDE8F0810CE021883846FFF7C0
:103FD000F7FD0646042E03D0FFF7E8FD0020F1E7C9
:103FE000BF1CA41C281EA5F101018DB2EDD1FFF765
:103FF000DDFD0120E6E7000000FC070870B50021A8
:1040000000230F22C47804B3154C246804F4E06440
:10401000C4F5E064210AC1F10403CA40447804FAFB
:1040200003F184781440214309010E4C0678A15510
:10403000047804F01F050124AC4005786D11AD0033
:1040400005F1E025C5F8004109E0047804F01F05FA
:104050000124AC40044D0678761145F8264070BD29
:104060000CED00E000E400E080E100E010B540F27B
:10407000CF2142F21070FCF7C7FF10BD10B5044607
:10408000642004FB00F1024800F063FD10BD000055
:104090000008004010B55521072000F0DBFA192078
:1040A00001F0E0FBAA21072000F0D4FA10BD2DE9B1
:1040B000F04104460D4616461F46600140EA0510D1
:1040C00040EAC600384300F0FF084146062000F0F1
:1040D000C1FABDE8F0812DE9FF4182B005460F46E7
:1040E0001646DDF83080002410E0BDF8160004FB11
:1040F0000080CDE90060BDF8163005EBC40188B240
:104100000822394600F07FF9601CC4B2BDF81400E3
:10411000C11700EB5171B4EBE10FE6DB06B0BDE86F
:10412000F0812DE9FF4782B005460F469046DDE954
:104130000E9A002416E0BDF816006043BDF8141076
:1041400000FB01F6F01706EB50700AEBE00001FBF4
:104150000451009088B242463946059BFFF7BBFFE9
:10416000601CC4B24C45E6DB06B0BDE8F0872DE923
:10417000FF4784B0804689469246109E002436B997
:1041800030222046611C4CB201A90A5407E0002EDF
:1041900005DA2D222046611C4CB201A90A540EE01A
:1041A0000A2096FBF0F100FB11603030C2B22046CD
:1041B000611C4CB201A90A540A2096FBF0F6002EAD
:1041C000EEDC00250DE001A8405D47B2601B401EFB
:1041D00001A9085C4855601B401E01AA1754681CC1
:1041E00045B204EBD471B5EB610FECDB002001A903
:1041F000085501A80090524649464046079B00F0EA
:1042000003F808B0BDE8F0872DE9FF4782B0074604
:104210008A4690460E9DBDF81400082805D1BDF8C9
:104220001600102801D1224C12E0BDF8140010280D
:1042300005D1BDF81600182801D11E4C08E0BDF8C4
:104240001400102804D1BDF81600202800D11A4C03
:1042500028E000261DE028782038BDF814104843D7
:10426000BDF8161000FB01F94FEAE97009EB507038
:1042700004EBE00001FB06000B4608225146CDE9A5
:104280000080384600F0BFF807F1080087B2701CC4
:10429000C6B2BDF81400C11700EB5171B6EBE10FC7
:1042A000D9DB6D1C28780028D3D106B0BDE8F08793
:1042B000285A000828600008287200082DE9F047F5
:1042C00082460C4615461E46089F4FF000081AE02D
:1042D0002146621C94B2504600F0B0F90021022041
:1042E00000F0B8F94FF0000907E017F8010B00F0F3
:1042F000F7F909F101001FFA80F9A945F5DB08F18A
:1043000001001FFA80F8B045E2DBBDE8F0872DE937
:10431000FF4F85B006460F460798801B00B28246C5
:1043200085B20898C01B00B283461FFA80F8BAF124
:10433000000F02DACAF1000085B2BBF1000F03DA08
:10434000CBF100001FFA80F8454506D12DB939465A
:104350003046129A00F088F852E0454528DBB9460D
:10436000002422E039463046129A00F07DF89AFB8C
:10437000F5F0304486B22846FCF70DF90190584616
:10438000FCF700F900900199FCF74CF80390601CD1
:10439000FCF7F8F802900399FCF712F80490FCF788
:1043A000FFF8484487B2601C04B2AC42DADD27E073
:1043B000B146002422E039463046129A00F054F803
:1043C0009BFBF8F0384487B24046FCF7E4F80190D4
:1043D0005046FCF7D7F800900199FCF723F80390BA
:1043E000601CFCF7CFF802900399FBF7E9FF0490FB
:1043F000FCF7D6F8484486B2601C04B24445DADDC6
:1044000009B0BDE8F08F2DE9F05F82460D461446F5
:104410001E46DDE90AB7584600F009F94FF00008DA
:104420001EE029466A1C95B2504600F007F90021AB
:10443000032000F00FF94FF0000907E017F8010B17
:1044400000F04EF909F101001FFA80F9E11704EBC1
:104450005171B9EBE10FF1DB08F101001FFA80F8AF
:10446000B045DEDBBDE8F09F70B505460E4614464C
:104470003146284600F0E2F80021022000F0EAF878
:10448000204600F02DF970BD2DE9F04781460E461B
:1044900014461F46DDF820A0504600F0C8F84FF043
:1044A00000082DE03146721C96B2484600F0C6F86E
:1044B000002508E00021032000F0CCF8FF2000F0E8
:1044C0000FF9681C85B2E11704EB5171B5EBE10FF0
:1044D000F0DB002508E00021022000F0BBF8504688
:1044E00000F0FEF8681C85B2E11704EB5171C910A9
:1044F000A4EBC101A942EEDC08F101001FFA80F82B
:10450000B845CFDBBDE8F08708B510208DF8030073
:104510000720ADF8000003208DF8020001210820DB
:1045200000F016F969461D48FFF78BFB4FF47860E1
:10453000ADF800000121402000F00AF96946184852
:10454000FFF77FFB10208DF80300E020ADF800009E
:104550000121202000F0FCF869461248FFF771FBAA
:104560004FF44070ADF800000121202000F0F0F879
:1045700069460C48FFF765FB4FF480710948FFF767
:1045800042FC012000F018F8FFF784FD022300220E
:1045900011461046FFF78BFD08BD0000000C0140DE
:1045A00000180140001401400346580140EA810010
:1045B0001043C0B27047000010B5044624B140213A
:1045C0000448FFF720FC03E040210248FFF719FCF4
:1045D00010BD0000001401402DE9F041044604F034
:1045E000070504F0F8060C48FFF707FC20F0070069
:1045F00040EA050739460848FFF707FC0748FFF778
:10460000FCFB20F4786040EA061739460348FFF7C0
:10461000FCFBBDE8F0810000000C014000180140E7
:1046200010B504462146052000F014F810BD10B561
:1046300004462146042000F00DF810BD70B5044674
:104640000D462146002000F005F82946012000F023
:1046500001F870BD2DE9F04104460E46022C01D050
:10466000032C01D100250AE0062C05D0072C03D02D
:10467000042C01D0052C01D1012500E002252046A3
:10468000FFF7AAFF4FF400711448FFF7BAFB80212F
:104690001248FFF7B8FB4FF480711048FFF7B1FBE9
:1046A00020210E48FFF7ADFB00BF00BF00BF00BFD9
:1046B00000BF20210948FFF7A6FB4FF4807107488F
:1046C000FFF7A1FB002705E0304600F009F836129D
:1046D000781CC7B2AF42F7DBBDE8F081001401409F
:1046E00010B504462046FFF777FF4FF400710F48DE
:1046F000FFF789FB80210D48FFF785FB4FF48071A0
:104700000A48FFF77EFB20210848FFF77AFB00BF2D
:1047100000BF00BF00BF00BF20210448FFF773FBAC
:104720004FF480710148FFF76EFB10BD001401408B
:1047300029B1064AD2690243044BDA6104E0034A14
:10474000D2698243014BDA617047000000100240D9
:1047500029B1064A92690243044B9A6104E0034A74
:1047600092698243014B9A61704700000010024039
:1047700030B500210022002400232D4D6D6805F086
:104780000C0121B1042905D0082923D105E0294DC8
:10479000056022E0274D05601FE0254D6D6805F49A
:1047A0007012234D6D6805F48034022505EB9242AA
:1047B0001CB9214D554305600BE01D4D6D6805F496
:1047C00000351DB11C4D5543056002E0194D5543A0
:1047D000056002E0174D056000BF00BF144D6D6815
:1047E00005F0F0010909154D6B5C0568DD40456079
:1047F0000F4D6D6805F4E061090A104D6B5C45686A
:10480000DD4085600A4D6D6805F46051C90A0B4DA5
:104810006B5C4568DD40C560054D6D6805F4404141
:10482000890B074D6B5CC568B5FBF3F5056130BDC1
:104830000010024000127A0000093D000000002034
:104840001000002010B500F001F810BD0CB50020DC
:10485000019000903348006840F48030314908608E
:1048600000BF3048006800F4003000900198401C00
:104870000190009818B90198B0F5A06FF1D12948BE
:10488000006800F4003010B10120009001E0002029
:1048900000900098012843D12348006840F01000A0
:1048A000214908600846006820F0030008600846B7
:1048B000006840F0020008601A48406819494860E2
:1048C0000846406848600846406840F48060486098
:1048D0000846406820F47C1048600846406840F470
:1048E000E81048600846006840F08070086000BF2B
:1048F0000C48006800F000700028F9D009484068B2
:1049000020F00300074948600846406840F0020074
:10491000486000BF0348406800F00C000828F9D147
:104920000CBD0000001002400020024010B51148EC
:10493000006840F001000F490860084640680E49D1
:1049400008400C494860084600680C49084009497D
:1049500008600846006820F4802008600846406827
:1049600020F4FE0048604FF41F008860FFF76AFFE4
:1049700010BD0000001002400000FFF8FFFFF6FE2F
:1049800010B50121880700F07EF8012845D125489F
:104990000068401C23490860084600680A21B0FBF3
:1049A000F1F201FB120020BB1F480078D0B91F486C
:1049B0000078082816D11E48407B02280BD01C48DE
:1049C000407B042807D01A48407B032803D01848AE
:1049D000407B052806D10120FEF74AFD012012493F
:1049E000087006E010480078012802D10220FEF786
:1049F0003FFD1048007801280FD10A48007800F0E8
:104A0000010028B94FF400610B48FFF7FCF904E0FE
:104A10004FF400610848FFF7F4F90121880700F01E
:104A200023F810BD40000020480000204C0000206A
:104A3000700000206F000020000C014010B5012123
:104A4000074800F020F8012804D106480068401CFF
:104A5000044908600121024800F006F810BD00007A
:104A60000004004044000020CA430282704721B184
:104A7000028842F00102028004E002884FF6FE73D1
:104A80001A400280704730B50246002000230024FF
:104A9000158A05EA0103958905EA010413B10CB1F1
:104AA000012000E0002030BD1AB183890B438381CF
:104AB00002E083898B4383817047000070B5002238
:104AC00000230024058C4EF6FF7635400584038CC8
:104AD0008488828B48F6FF752A404FF6FF452A40AE
:104AE0000D884FF6FF7606EA05252A434DF6FF7539
:104AF0002B400D8906EA05352B434D8806EA05351E
:104B00002B430B4DA84202D00A4DA84208D14BF6C8
:104B1000FF752C408D894FF6FF7606EA85152C43EC
:104B200084808283CD88A0F84050038470BD00004B
:104B3000002C0140003401400A460021818B4FF2D5
:104B4000FF7319404FF6FF7303EA02231943818371
:104B50007047A0F840107047002202881D4B984211
:104B60000ED01D4B98420BD0B0F1804F08D01B4B9C
:104B7000984205D01A4B984202D01A4B984204D161
:104B80004FF68F731A404B881A43174B984207D041
:104B9000164B984204D04FF6FF431A40CB881A4375
:104BA00002808B8883850B8803850A4B98420BD043
:104BB000094B984208D00E4B984205D00D4B9842B5
:104BC00002D00D4B984201D10B7A038601238382D8
:104BD00070470000002C01400034014000040040F8
:104BE00000080040000C004000100040001400408D
:104BF00000400140004401400048014010B540F22F
:104C00002551144800F0E2F818B3124800F09AF960
:104C1000C4B2114801880088401C0F4A10800F4818
:104C200044542046FEF7D6FE0A2C0BD100210A4838
:104C300002880088401C084B1880084881540020D6
:104C40001946088004480088C72802DD0020024970
:104C5000088010BD003801403C0000202C010020DD
:104C60007047704721B1828942F40052828104E08A
:104C700082894DF6FF731A4082817047F0B587B084
:104C800004460D4616461F464B4884421FD101215B
:104C900044F20400FFF75CFD6015ADF81800032036
:104CA0008DF81A0018208DF81B0006A94348FEF75E
:104CB000C8FF2015ADF8180004208DF81B0006A9C8
:104CC0003E48FEF7BEFF25208DF804004AE03C4830
:104CD000844222D101214804FFF72AFD012104204A
:104CE000FFF736FD0420ADF8180003208DF81A00F8
:104CF00018208DF81B0006A93048FEF7A2FF0820F7
:104D0000ADF8180004208DF81B0006A92B48FEF70B
:104D100098FF26208DF8040024E02A48844221D1FF
:104D200001218804FFF704FD01210820FFF710FD91
:104D30002015ADF8180003208DF81A0018208DF802
:104D40001B0006A92048FEF77CFFE014ADF8180010
:104D500004208DF81B0006A91848FEF772FF2720D3
:104D60008DF80400F0B28DF80500F8B28DF8060059
:104D700001208DF8070001A8FFF740F902950020F7
:104D8000ADF80C00ADF80E00ADF81000ADF8140051
:104D90000C20ADF8120002A9204600F067F80122AD
:104DA00040F22551204600F03BF801212046FFF754
:104DB00059FF07B0F0BD0000003801400008014075
:104DC0000044004000480040000C014070B502461D
:104DD000002400230025002040F66A16B14200D1CD
:104DE00000BFC1F3421501F01F03012606FA03F3C9
:104DF000012D02D19689334006E0022D02D1168A98
:104E0000334001E0968A33400C12012606FA04F47E
:104E10001688344013B10CB1012000E0002070BDB1
:104E2000F0B50346002400260025002040F66A174E
:104E3000B94200D100BF1846C1F3421401F01F0669
:104E4000012707FA06F5012C01D10C3004E0022CF1
:104E500001D1103000E014301AB107682F43076009
:104E600002E00768AF430760F0BD00002DE9F0479E
:104E700086B005460E460024A24600BFA146002784
:104E8000B08900B100BF2F462C8A4CF6FF70044059
:104E9000F08804432C82AC894EF6F3100440B088AD
:104EA00031890843718908430443AC81AC8A4FF6C9
:104EB000FF400440B0890443AC8201A8FFF758FCCE
:104EC0001F48874202D1DDF810A001E0DDF80CA0F8
:104ED000A88900F4004040B10AEBCA0000EB0A10B8
:104EE00031684900B0FBF1F807E00AEBCA0000EBBB
:104EF0000A1031688900B0FBF1F86420B8FBF0F0CB
:104F000004012009642101FB1089A88900F40040F4
:104F100040B1322000EBC900B0FBF1F000F0070017
:104F2000044308E0322000EB09106421B0FBF1F0EB
:104F300000F00F0004432C8106B0BDE8F0870000AC
:104F40000038014001468888C0F30800704700BF60
:104F5000028802F04002002AFAD0818070470000E7
:104F60000FB4084B10B504A902AA039800F0DEF8AC
:104F7000044602A9002000F070FC204610BC5DF839
:104F800014FB00005B58000802E008C8121F08C1AB
:104F9000002AFAD170477047002001E001C1121FBA
:104FA000002AFBD1704700002DE9FF5F82B000218D
:104FB000DDE90430020DDDF840B0034318D044F6BB
:104FC0001050A2F2FF3242431514119801281FD04D
:104FD000A5EB0B00401C5FEA000A4FF000064E4FA5
:104FE000DFF83891B046504615D5CAF1000413E0F9
:104FF000119801244AA3012801D16FEA0B010298FC
:10500000119AC0E90031C0E9024206B0BDE8F09F44
:10501000CBF10000DFE704460021404A491842EB8B
:105020000450CDE9001012E0E00707D032463B46BD
:1050300040464946FBF734FA8046894632463B46AD
:1050400010461946FBF72CFA06460F466410002C52
:10505000EAD1DDE90401DDE90023BAF1000F06DA47
:10506000FBF71EFA42464B46FBF71AFA05E0FBF740
:10507000CCFC42464B46FBF7C8FC04460E460022D9
:10508000284BFBF749FD03D84FF0FF30014607E0FE
:105090000022254B20463146FBF710FCFBF724FD90
:1050A000102409E0002C0ADB0A220023FBF7FEFA99
:1050B000039B30321A55641E50EA0102F2D1641C7F
:1050C000039AC4F111031444119A012A03D0012256
:1050D00008430DD10AE0084304D000204FF0110B23
:1050E000119072E7A3EB0B056D1E0DE05B4504DD2F
:1050F0004FF0000205F1010504E003DA4FF0000271
:10510000A5F10105002AECD002981199C0E90231FD
:10511000C0E9004579E70000000014400000F03FBE
:10512000300000000000F0430000E03F2DE9FF4F99
:1051300095B09B468946064600250FE2252877D183
:1051400000242746F84A0121059400E0044316F89C
:10515000013F203B01FA03F01042F7D130782A28B2
:1051600011D06FF02F033078A0F13002092A16D841
:10517000059A44F0020402EB820203EB420210445F
:10518000761C0590EFE759F8042B0592002A03DA04
:10519000504244F40054059044F00204761C3078E8
:1051A0002E2816D116F8010F44F004042A280DD039
:1051B0006FF02F023078A0F13003092B09D807EBEC
:1051C000870302EB4303C718761CF3E759F8047B07
:1051D000761C30786C280FD006DC4C2817D0682855
:1051E0000DD06A2814D104E0742810D07A280FD189
:1051F0000DE044F400140AE044F4801401E044F4A7
:1052000040147278824202D104F58014761C761C18
:10521000307866280BD013DC582877D009DC0028BA
:1052200075D04528F6D04628F4D047281AD19DE1FC
:1052300018E0632835D0642879D0652812D195E12B
:10524000702873D008DC6728F1D069286FD06E28E9
:105250000DD06F2806D1B5E073282CD0752875D0F5
:10526000782874D05A46179990476D1C75E1C4F39D
:105270000250022809D003280DD0D9F800100428C4
:105280000DD00D6009F1040967E1D9F80010EA17A3
:10529000C1E90052F6E7D9F800100D80F2E70D7071
:1052A000F0E719F8041B8DF8001000208DF80100BC
:1052B000EA46012003E059F804AB4FF0FF306107E4
:1052C0004FF0000102D40DE008F101018846B94217
:1052D0000FDA8045F8DB1AF808100029F4D108E04D
:1052E00008F1010188468142FADB1AF8081000290A
:1052F000F6D105985B46A0EB080721463846179A79
:1053000000F094FA284400EB080507E04DE029E19D
:105310000DE01AF8010B5A4617999047B8F10108A9
:10532000F7D25B4621463846179A13E142E00A223B
:105330000092C4F302524FF0000A022A08D059F832
:1053400004CB032A4FEAEC710AD00DE029E02AE0F1
:1053500009F1070121F00702F2E802C1914609E0D4
:105360000FFA8CFC4FEAEC71042A03D14FFA8CFC43
:105370004FEAEC71002907DA0A460021DCF1000C43
:1053800061EB02012D2202E0220504D52B228DF8CB
:105390000420012203E0E20701D02022F7E7904633
:1053A00059E00A2102E010220DE010214FF0000A1E
:1053B00000910BE010224FF0000A44F0040408278B
:1053C000009203E008224FF0000A0092C4F3025258
:1053D000022A05D059F804CB0021032A08D009E09D
:1053E00009F1070121F00702F2E802C1914605E048
:1053F0001FFA8CFC042A01D10CF0FF0C4FF00008BE
:10540000220728D5702806D0009B83F0100353EAAA
:105410000A0305D00EE040228DF80420012208E0A6
:105420005CEA010206D030228DF804208DF80500D8
:1054300002229046009B83F0080353EA0A030AD134
:105440005CEA010201D1620705D530228DF8042003
:105450004FF001087F1E582804D034A003900EA8F6
:1054600002900DE036A0F9E753466046009AFBF73C
:105470001DF984460398825C0298401E02900270D7
:105480005CEA0100F0D1029806A9081A00F1200A8E
:10549000600702D524F4803400E00127574502DD7F
:1054A000A7EB0A0000E0002000EB0A01009005983D
:1054B0004144401A0590E00306D45B462146179A02
:1054C000059800F0B3F90544002706E001A85A4604
:1054D000C05D179990476D1C7F1C4745F6DBE003C4
:1054E0000CD55B462146179A059800F09FF90544B4
:1054F00004E030205A46179990476D1C0099481EC9
:1055000000900029F5DC08E0029802995A460078DC
:10551000491C0291179990476D1CBAF10001AAF13C
:10552000010AF1DC65E10000092801003031323365
:1055300034353637383961626364656600000000CF
:1055400030313233343536373839414243444546B9
:105550000000000000F058F90544761C307800285F
:105560007FF4ECAD19B02846BDE8F08F620700D497
:10557000062709F1070222F0070CFCE80223E146A6
:1055800003F000485FEA080C02D00FF2702C0DE027
:105590005FEA045C02D50FF2682C07E05FEAC47C86
:1055A00002D00FF2602C01E0AFF2700C4FF0FF3828
:1055B00023F00043CDF850C065280CD006DC452808
:1055C00009D046281DD047283DD13DE0662818D097
:1055D00067287ED138E00021112F01DB112000E087
:1055E000781CCDE9000106A90EA8FFF7DDFCDDE976
:1055F0000F010E9A03910021009207F1010A049114
:105600004DE04FF000400097CDE9011006A90EA82B
:10561000FFF7CAFCDDE90F0203920E9B11990022ED
:10562000DDF80CA00093049211B9791C00EB010A7B
:10563000B7EB0A0004D4C0F1FF3007F1010A04906F
:10564000AAEB0700019044E0012F00DA01270021B6
:10565000112F01DD112000E03846CDE9000106A937
:105660000EA8FFF7A1FCDDE90F010E9A03910021BE
:1056700004910092BA4621070CD40399514500DAEF
:105680008A46BAF1010F05DD009AAAF10101515CC9
:10569000302908D0B84202DA10F1040F06DA0121ED
:1056A000CDE9011015E0AAF10101E9E7002805DCC8
:1056B000049901440491AAEB000102E0411C514508
:1056C00000DD8A460499401A401C01904FF00040CA
:1056D0000290200704D40198504501DBCDF80480E6
:1056E00000208DF84F0002980DF14F07B0F1004FE8
:1056F00025D02B200E9002984FF0020800280CDADB
:10570000404202902D200E9007E00A210298FAF7FD
:10571000B7FF3031029007F8011DB8F10001A8F180
:105720000108F2DC02980028EFD1791E0E9808706B
:10573000307800F0200040F0450007F8020D12A874
:10574000C01B00F107081498007800B1012000EB9D
:105750000A01019801EBE07105984144401A401E8E
:105760000590E00306D45B462146179A059800F0A1
:105770005DF805441498007818B15A461799904777
:105780006D1CE00324D55B462146179A059800F06E
:105790004DF805441CE00498002807DBDDE903010F
:1057A000884203DD0098405C179901E0179930208A
:1057B0005A469047049805F10105401C0490019851
:1057C000401E019004D12E205A46179990476D1C17
:1057D000BAF10001AAF1010ADDDC05E017F8010BBE
:1057E0005A46179990476D1CB8F10001A8F10108BD
:1057F000F4DC5B462146179A0598ABE62D000000C5
:105800002B000000200000002DE9F0410446002597
:105810001E461746880404D405E039462020B047C8
:105820006D1C641EF9D52846BDE8F0812DE9F041D4
:10583000044600251E469046C80301D5302700E0E7
:105840002027880404D505E041463846B0476D1C42
:10585000641EF9D52846BDE8F0810A68531C0B6028
:1058600010707047014642F228324A434FF0E0235D
:105870005A6101221A6100229A6100BF4FF0E022B2
:10588000106900F001021AB100F48032002AF5D04C
:1058900000224FF0E0231A619A61704710B5044668
:1058A00003E04FF47A70FFF7DDFF201EA4F101043E
:1058B000F7D110BD014601EBC1024FF0E0235A6160
:1058C00001221A6100229A6100BF4FF0E0221069A4
:1058D00000F001021AB100F48032002AF5D0002253
:1058E0004FF0E0231A619A6170470000FEF70CFE4A
:1058F000FF20FEF795FE032300224FF4E1314648D6
:10590000FFF7BCF90123002241F61F4142F210705B
:10591000FBF742FB0223002241F61F4141F288308F
:10592000FBF704FBFEF7CAFAFDF7E8FEFEF79EFB65
:10593000FBF7AEFBFEF7D2F802213848FEF720FB5A
:105940003648007836490870344880783549087000
:10595000FEF762FA10280FD0314800781E280BDCC1
:105960002F480078012807DB2E480078072803DC41
:105970002C480078012803DAFDF724FBFDF7D0F965
:1059800028480078012803DB26480078072802DD34
:10599000012024490870234803780022114610464C
:1059A000FEF785FBFDF714FE0220FFF777FF0120CD
:1059B0001B4948732EE01A48407B082828D2DFE8AC
:1059C00000F02704090E13181D22FCF7C5FCFCF794
:1059D00017FC1EE0FDF7FAFCFDF714FC19E0FBF7DD
:1059E0000DFEFBF7E3FC14E0FCF7A8FBFCF70CFB57
:1059F0000FE0FCF785FDFCF7F1FC0AE0FCF7BEFECA
:105A0000FCF78EFE05E0FBF7DDFEFBF7C1FE00E0D4
:105A100000BF00BFCFE700000038014016000020A3
:105A200070000020140000200000000000000000B2
:105A30000000000000000000000000101010101016
:105A40001010000010100000001224244800000074
:105A500000000000000000000000001212127E246E
:105A600024247E24242400000000083C4A4A4838AC
:105A70000C0A0A4A4A3C080800000044A4A8A8B03E
:105A8000541A2A2A4A44000000000030484848506E
:105A90006EA49498897600000060202040000000E9
:105AA00000000000000000000002040808101010B0
:105AB0001010100808040200004020101008080808
:105AC0000808081010204000000000001010D63810
:105AD00038D6101000000000000000000008080880
